:100000000C942A000C9412010C943C000C943C00BB
:100010000C943C000C943C000C943C000C943C0070
:100020000C943C000C943C000C943C000C943C0060
:100030000C943C000C943C000C943C000C943C0050
:100040000C943C000C943C000C943C000C943C0040
:100050000C943C0011241FBECFE5D8E0DEBFCDBF1D
:1000600020E0A0E6B0E001C01D92A236B207E1F7A1
:100070000E940B010C94F7020C94000062E083E0F4
:100080000E94F80060E080E00E94FC0061E080E0F7
:100090000E94FC0062E080E00E94FC0060E081E0E1
:1000A0000E94FC0061E081E00E94FC0062E081E0CF
:1000B0000E94FC000895789485B7836085BF8BB754
:1000C00080648BBF13BE12BE83B7816083BF60E0C4
:1000D00080E00E94000162E081E00E94000120E0D7
:1000E00030E008C008B600FEFDCF88B7816088BF49
:1000F0002F5F3F4F2C348CE43807A0F312BE60E032
:1001000080E00E94040162E081E00E940401C0E0FE
:10011000D0E019C061E080E00E94080161E081E068
:100120000E94080120E030E008C008B600FEFDCFC4
:1001300088B7816088BF2F5F3F4F283E83E0380734
:10014000A0F312BE2196C431D10520F312BE61E0A6
:1001500080E00E94040161E080E00E94040162E00E
:1001600080E00E94000160E081E00E94000120E048
:1001700030E008C008B600FEFDCF88B7816088BFB8
:100180002F5F3F4F2C348CE43807A0F312BE62E09F
:1001900080E00E94040160E081E00E940401C0E070
:1001A000D0E019C061E080E00E94080161E081E0D8
:1001B0000E94080120E030E008C008B600FEFDCF34
:1001C00088B7816088BF2F5F3F4F283E83E03807A4
:1001D000A0F312BE2196C431D10520F312BE61E016
:1001E00080E00E94040161E080E00E9404016FCF82
:1001F00040E00E948101089541E00E94810108953C
:1002000041E00E94F701089540E00E94F70108953F
:100210000E94BF0208950E943E000E945B0080E0A1
:1002200090E008951F920F920FB60F9211242F9312
:100230003F934F935F936F937F938F939F93AF936E
:10024000BF93CF93DF93EF93FF9340E650E060E0DE
:1002500080E00E946D028091600090916100892B86
:10026000C1F561E080E00E94040161E081E00E944C
:10027000040162E080E00E94040160E081E00E94ED
:100280000401C0E0D0E019C061E080E00E940801F4
:1002900061E081E00E94080120E030E008C008B67B
:1002A00000FEFDCF88B7816088BF2F5F3F4F283E9B
:1002B00083E03807A0F312BE2196C431D10520F3A4
:1002C00012BE61E080E00E94040161E080E00E94D3
:1002D00004018BB78F7B8BBF0E945B00FF91EF9176
:1002E000DF91CF91BF91AF919F918F917F916F914E
:1002F0005F914F913F912F910F900FBE0F901F90E4
:100300001895843008F072C0683008F06FC0423031
:1003100008F06CC0813001F130F08230B1F18330EF
:1003200009F44CC00895413059F42AB381E090E0BB
:1003300002C0880F991F6A95E2F7822B8ABB089545
:100340002AB381E090E002C0880F991F6A95E2F716
:10035000809582238ABB0895413059F427B381E008
:1003600090E002C0880F991F6A95E2F7822B87BB45
:10037000089527B381E090E002C0880F991F6A9525
:10038000E2F78095822387BB0895413059F424B366
:1003900081E090E002C0880F991F6A95E2F7822BF6
:1003A00084BB089524B381E090E002C0880F991FB8
:1003B0006A95E2F78095822384BB0895413059F411
:1003C00021B381E090E002C0880F991F6A95E2F79F
:1003D000822B81BB089521B381E090E002C0880F99
:1003E000991F6A95E2F78095822381BB0895843036
:1003F00008F072C0683008F06FC0423008F06CC07E
:10040000813001F130F08230B1F1833009F44CC019
:100410000895413059F42BB381E090E002C0880F79
:10042000991F6A95E2F7822B8BBB08952BB381E06D
:1004300090E002C0880F991F6A95E2F780958223A9
:100440008BBB0895413059F428B381E090E002C09D
:10045000880F991F6A95E2F7822B88BB089528B30D
:1004600081E090E002C0880F991F6A95E2F78095BD
:10047000822388BB0895413059F425B381E090E090
:1004800002C0880F991F6A95E2F7822B85BB0895F9
:1004900025B381E090E002C0880F991F6A95E2F7CA
:1004A0008095822385BB0895413059F422B381E0C1
:1004B00090E002C0880F991F6A95E2F7822B82BBF9
:1004C000089522B381E090E002C0880F991F6A95D9
:1004D000E2F78095822382BB0895843008F04EC0F5
:1004E000683008F04BC04115510509F447C0813010
:1004F000B1F028F0823019F1833089F1089589B381
:1005000090E002C0959587956A95E2F780FF04C058
:1005100081E0FA0180830895FA011082089586B37C
:1005200090E002C0959587956A95E2F780FF04C038
:1005300081E0FA0180830895FA011082089583B35F
:1005400090E002C0959587956A95E2F780FF04C018
:1005500081E0FA0180830895FA011082089580B342
:1005600090E002C0959587956A95E2F780FF04C0F8
:1005700081E0FA0180830895FA01108208958430A1
:10058000A8F5683098F5813089F028F08230C9F0FC
:10059000833011F108952BB381E090E002C0880F01
:1005A000991F6A95E2F782278BBB089528B381E0F3
:1005B00090E002C0880F991F6A95E2F7822788BBF6
:1005C000089525B381E090E002C0880F991F6A95D5
:1005D000E2F7822785BB089522B381E090E002C054
:1005E000880F991F6A95E2F7822782BB0895F894D5
:0205F000FFCF3B
:00000001FF
